:020000040800F2
:10000000B80E0020C50100081F330008FD2E0008AF
:100010001D33000851080008813B00080000000063
:100020000000000000000000000000001135000882
:10003000D10B000800000000A333000813350008AE
:10004000DF010008DF010008DF010008DF01000810
:10005000DF010008DF010008DF010008DF01000800
:10006000DF010008DF010008DF010008DF010008F0
:10007000DF010008DF010008DF010008DF010008E0
:10008000DF010008DF010008DF010008DF010008D0
:1000900055080008DF010008DF010008DF01000843
:1000A000DF010008C9350008DF010008DF01000892
:1000B000DF010008DF010008DF010008DF010008A0
:1000C000DF010008DF010008DF010008DF01000890
:1000D000DF010008DF010008DF010008DF01000880
:1000E000DF010008DF010008DF010008DF01000870
:1000F000DF010008DF010008DF010008DF01000860
:10010000DF010008DF010008DF010008DF0100084F
:10011000DF010008DF010008DF010008DF0100083F
:10012000DF010008150B0008210B0008DF010008A3
:10013000DF010008DF010008DF010008DF0100081F
:10014000DF010008DF010008DF010008DF0100080F
:10015000DF010008DF010008DF010008753B00082F
:10016000DF010008DF010008DF010008DF010008EF
:10017000DF010008DF010008DF01000800000000C7
:10018000DF010008DF010008DF010008DF010008CF
:10019000DF010008DF010008DF010008DF010008BF
:1001A0000000000000000000DF010008DFF810D0B0
:1001B00000F03CFB00480047213D0008AFF3008001
:1001C000B80E00200648804706480047FEE7FEE7D5
:1001D000FEE7FEE7FEE7FEE7FEE7FEE7FEE7FEE7F7
:1001E000B9350008AD0100082DE9F05F0546002093
:1001F00092469B4688460646814640241BE0284698
:1002000041464746224600F00AFA53465A46C01A6B
:10021000914110D311461846224600F0F1F92D1AEB
:1002200067EB01084F4622460120002100F0E8F963
:1002300017EB00094E41201EA4F10104DFDC484603
:1002400031462A464346BDE8F09F40EA01039B073A
:1002500003D009E008C9121F08C0042AFAD203E03B
:1002600011F8013B00F8013B521EF9D27047D2B29F
:1002700001E000F8012B491EFBD270470022F6E78F
:1002800010B513460A4604461946FFF7F0FF20460C
:1002900010BD2DE9FE4F804681EA0300C00F0C46D9
:1002A000009021F0004123F00045B8EB0200A94185
:1002B00005D24046214690461C460B46024623F096
:1002C0000040104347D0270DC7F30A00C3F30A517B
:1002D0000290401A019040286BDAC3F3130040F4F7
:1002E000801B0098924620B10023D2EB030A63EBF7
:1002F0000B0B01985946C0F14002504600F080F9BE
:1003000006460D4650465946019A00F098F910EB02
:1003100008006141002487EA115284EAE7731A4316
:1003200040D0009A62B3019A012A4FEA075215DCC5
:10033000001B61EB02014FF0004202EA0752CDE9D7
:100340000042001C41F5801132462B4600F0CFF9E7
:1003500003B0BDE8F08F40462146F9E7001B61EB92
:100360000201001C41F5801300185B412018A2F522
:10037000001747EB030140EAD570B6196D4111E053
:100380006D084FEA360645EAC0754FEA0752001B72
:1003900061EB0201001C41F5801149084FEA300071
:1003A0000019514132462B4603B0BDE8F04F00F032
:1003B0008FB90098012240000023D0EB020263EBCA
:1003C000E073009821464FEAE074B8EB000061EB5F
:1003D0000401E9E783F000435BE781F0004158E75F
:1003E0002DE9FE4F81EA030404F0004421F00041AE
:1003F00000944FF0000B23F0004350EA01045ED05C
:1004000052EA03045BD0C3F30A54C1F30A552C44E7
:10041000A4F2F3340194A0FB0254C1F3130141F49C
:100420008011C3F3130343F4801301FB024400FB68
:10043000034E840A970A44EA815447EA8357A4FB8F
:10044000076802958D0A05FB07854FEA932C04FB8C
:100450000C542705029D4FEA065847EA1637B5EBBC
:1004600008056EEB070C870E920E47EA811742EAE9
:100470008312A7FB0201B6EB0B0164EB00042B0D0A
:1004800043EA0C335E1844EB1C50DA465146E7FB56
:100490000201C5F313044FEA0B3343EA14534FEA46
:1004A0000432019C43EA0603A4F10C040294009C6C
:1004B000CDE900B400F01BF903B0BDE8F08F0020D7
:1004C0000146F9E72DE9F04D81EA030404F0004B01
:1004D00021F0004514464FF0000A23F0004150EA95
:1004E000050220D054EA01021DD0C5F30A57024686
:1004F000C5F31303C1F31300C1F30A5640F480158A
:1005000043F48013A7EB0608101BD64608F2FD380B
:1005100073EB050002D308F1010801E092185B417A
:10052000B8F1000F03DA00200146BDE8F08D00208D
:100530004FF48011064684460EE0171B73EB050747
:1005400005D3121B63EB050306434CEA010C490873
:100550004FEA300092185B4150EA0107EDD152EAB0
:10056000030012D082EA040083EA0501084305D0A3
:10057000101BAB4106D20122002306E000224FF0FF
:10058000004302E06FF0010253101AEB06004CEB3F
:10059000085110EB0A0041EB0B01BDE8F04D00F0F3
:1005A00097B800F0004230F000400AD0C10D01F5CC
:1005B0006071C0F3160042EA0151C20840071143BE
:1005C000704700200146704701F0004330B421F02D
:1005D000004150EA010206D00A0DA2F56072C1F393
:1005E0001301002A02DC30BC00207047440F44EAAB
:1005F000C104C100E01830BC00EBC25000F031B8BB
:10060000202A04DB203A00FA02F1002070479140D2
:10061000C2F1200320FA03F3194390407047202AC7
:1006200004DB203A21FA02F00021704721FA02F39C
:10063000D040C2F120029140084319467047202A59
:1006400006DBCB17203A41FA02F043EAE07306E0FA
:1006500041FA02F3D040C2F120029140084319460A
:1006600070470029A8BF7047401C490008BF20F010
:100670000100704710B4B0FA80FC00FA0CF050EAA8
:10068000010404BF10BC704749B1CCF1200421FA29
:1006900004F411FA0CF118BF012121430843A3EB24
:1006A0000C01CB1D4FEA00614FEA102042BF002031
:1006B00010BC704700EBC35010440029A4BF10BC0D
:1006C0007047401C490008BF20F0010010BC704773
:1006D00010B5141E73F1000408DA401C41F100014A
:1006E00092185B411A4301D120F0010010BD2DE9A1
:1006F000F04D92469B4611B1B1FA81F202E0B0FA98
:1007000080F220329046FFF77BFF04460F4640EA16
:100710000A0041EA0B0153465A46084313D01146DA
:1007200053EA010019D0C8F140025046FFF777FFA5
:1007300005460E46504659464246FFF761FF0843BC
:1007400005D0012004E020463946BDE8F08D0020A8
:10075000054346EAE0762C4337430A986305E40AEA
:10076000A0EB08000022FD0A44EA47540A3002D5F3
:1007700000200146E9E7010510196941DDE9084556
:1007800000196941BDE8F04DA2E72DE9F04D0023C5
:100790001A461B1A8A4103DB00200146BDE8F08D92
:1007A000C1F30A52C1F3130141F480154FF0000B5D
:1007B000D10702D100186D41521E0027044640F2B5
:1007C000FF11384601EB620A3E4680460246002091
:1007D0004FF48011FFF723FFC2197141BB1846EB9C
:1007E0000100B4EB030C75EB000C04D3E41A65EBC9
:1007F000000517460E46241908F101006D41804698
:100800003428E3DDF91946EB0600091BA84103D2A1
:100810004FF0FF32134601E0002213461BEB0700A6
:1008200046EB0A51BDE8F04DFFF752BF064C074DAD
:1008300006E0E06840F0010394E8070098471034B0
:10084000AC42F6D3FFF7B6FCC8400008E840000809
:10085000FEE70000014800F062BC0000A80800208C
:1008600010B58AB0002101220446CDE90612039199
:1008700004910E20CDE9082005910091019102918B
:100880006946204600F03AFB08B100F0EBF920463B
:1008900000F02CFE08B100F0E5F90221204600F03E
:1008A000ADFA08B100F0DEF90AB0002010BD00007A
:1008B000002A07D10449B0F5017F01D800F038B80B
:1008C00000F0D2B9704700001400002030B589B0A4
:1008D0000825044606950C98AD010295002504955F
:1008E00005950D0A8DF800508DF80110110A8DF84C
:1008F0000210190A8DF804108DF80530010A8DF8E0
:1009000006108DF803208DF80700204600F0F1FB5B
:100910000028FAD0054B6A4602A9204600F080FA6A
:10092000002801D000F09EF909B030BD0000002081
:1009300010B5A0F20120082814D2C0EBC00000EBD3
:100940008002094800EB820250683228104605DA1E
:1009500003F0B2F95068401C506001E000F052F81A
:10096000002010BD012010BD3800002010B500216E
:10097000DFED1C2A9FED1C3ADFED1C0A9FED1C1ACF
:100980001C4ADFED1D1AB2EE0E2AB7EE000A0C4625
:10099000C1EBC10000EB800302EB830080ED0F2A66
:1009A00080ED100A80ED110AC0ED182A80ED193A89
:1009B000C0ED1A0AC0ED1B0A80ED221A12F823308E
:1009C00013B1012B03D006E0DFED0C3A01E0DFEDBF
:1009D0000C3AC0ED0C3AC0ED0D1A491C44620829CE
:1009E000D6DB10BD00409C45000020420000000006
:1009F00000401C4638000020000000462CA0994111
:100A00000000104210B504462DED048B08889FEDC0
:100A10003C1A40BA00EE100AD4ED0D1A394AB8EE6D
:100A2000400A60EE010A80EEA10A84ED020A4888BD
:100A300040BA00B200EE900AB8EEE08A84ED038A74
:100A4000888840BA00B200EE900AF8EEE00AC4EDE1
:100A5000040AD4ED070AC4ED060A70EE600A84EDBC
:100A6000070A606A10EE901A914201DD401E05E00F
:100A700010EE901A244A914201D9401C606200EEA7
:100A8000900AD4ED081A4FF4B471F8EEE00A30EE93
:100A9000612A484360EE810A32EE202AD4ED0C0A26
:100AA000C2EE202A88EE202AC4ED0A2A84ED0B2A01
:100AB00002EE100AB8EEC22A32EE000A70EE618A27
:100AC00020EE810AC4ED058A10EE100AFFF769FDD9
:100AD00041EC190B18EE900AFFF763FD9FED0B1B1D
:100AE00053EC112BFFF77CFC53EC192BFFF7EAFCBE
:100AF000FFF76AFDA06384ED128ABDEC048B10BD84
:100B00000000B44300003443000034C3F15D94EAB4
:100B10004C7E6040014800F075BD0000580A00207E
:100B2000014800F06FBD0000F8090020016818239B
:100B3000CAB2103AB2FBF3F2054B6FF30901032A74
:100B40009B5CC36500D9091D81650846704700009C
:100B5000A640000810B5014600208B698A6A4FF054
:100B6000C07453B1B3F5005F15D072B1012A0CD037
:100B7000022A0AD0032A09D104E01AB1012A06D0B8
:100B8000022A03D1C96AC90100D5012010BDC96A72
:100B9000A142FAD010BD002AF7D0012AF2D0022AD1
:100BA000F3D0032AF3D010BD30B50468256825F4CE
:100BB00080252560046863608368402B036803D048
:100BC00099600068C26030BD9A600068C16030BD45
:100BD0007047000070B5204C204D214E20794FF415
:100BE0008051022826D00022284600F0B4FF0122BE
:100BF0000221304600F0AFFF607B4FF40051022825
:100C00001ED00022284600F0A6FF01220421304613
:100C100000F0A1FFA07D4FF48041022816D00022F1
:100C2000284600F098FF01223046BDE870400821B8
:100C300000F091BF0122284600F08DFF0022D7E787
:100C40000122284600F087FF0022DFE70122284624
:100C500000F081FF0022E7E7D8070020000C0240E7
:100C60000018024072B6FEE710B5A0F50170072823
:100C700003D200F039F8002010BD012010BD0000A3
:100C80009FED130A134A9FED141ADFED142A9FED0E
:100C9000143A9FED142A0021F2EE040AF7EE001A2E
:100CA00001EBC10000EB400002EB8000491C80ED2D
:100CB000070AC0ED080AC0ED091A80ED101AC0ED50
:100CC000112A80ED1A3A80ED062A0729E8DB7047E1
:100CD00000001643B40400200060EA4600002042F1
:100CE000000070420000004670B5DFED3B0A2DEDBC
:100CF000048B0A8852BA00EE102A00EBC00202EB05
:100D00004203B8EE400A354A02EB830420EE200A83
:100D1000D4ED060A80EE208A84ED008A4A8852BA11
:100D200000EE102AF8EE408AC4ED018A898849BA9B
:100D300000EE101A2949B8EE400A1C3984ED020A67
:100D400051F82020521E41F82020521C41D105228A
:100D5000234D41F8202060692968B7EE001A081A6F
:100D600000EE100AF8EE400A81EE200A10EE100A9A
:100D7000FFF717FC9FED1B1B53EC112BFFF730FB0C
:100D80009FED1A1B53EC112BFFF72AFB9FED191B4C
:100D900053EC112BFFF796FB94ED040A41EC190B71
:100DA00038EE400A10EE100AFFF7FBFB53EC192B4C
:100DB000FFF716FBFFF708FCE06020F00040C0F1F1
:100DC000FF40002801D5C4ED038A84ED048A286819
:100DD0006061BDEC048B70BD0000B443B40400201E
:100DE0002C0000200000000000408F4000000000A8
:100DF00000004E40000000000080764090F8202067
:100E0000012A07D0022A05D0416A41F480214162BB
:100E100001207047006842690A4342610020704720
:100E2000F0B590F820500468A468012D05D0022D7B
:100E300003D0416A41F480215DE014F0406F01D19C
:100E4000E50055D5C4F30164022C03D9416A41F48D
:100E5000000150E00125A5401D608D684FF4C0736E
:100E60009DB1CE6835434E6845EAC605066803EB7A
:100E70000417F5514FF4C275076805EB04150E69A8
:100E80007E51097D012905D009E00E88CD6845EA2B
:100E90004655EBE701684E5946F480764E5111797C
:100EA000D579567941EA056195792D0445EA0625FB
:100EB00029434FF4C676056806EB0416A95111784C
:100EC000D57841EA0561957852782D0445EA0222E9
:100ED00011434FF4C475026805EB041551510068C5
:100EE00003EB0411425842F0010242500020F0BDD1
:100EF000416A41F4001141620120F0BD10B590F843
:100F00002020012A07D0022A05D0416A41F480211D
:100F10004162012010BD3B48D0F8002242F001029E
:100F2000C0F80022D0F8002222F47C52C0F800223F
:100F3000D0F800224B6A42EA0322C0F800220A7D60
:100F400002F01F0301229A40D0F81C329343C0F8EC
:100F50001C32CB69B3B9D0F80C329343C0F80C32D1
:100F60008C894B6864F31F434C6900EBC404C4F8DC
:100F700040320C890B6864F31F434C6900EBC404D6
:100F8000C4F84432CB69012B16D1D0F80C3213438C
:100F9000C0F80C320C884B6864F31F434C6900EBBB
:100FA000C404C4F840320C89CB6864F31F434C6915
:100FB00000EBC404C4F844328B69002BD0F804322F
:100FC0000ED01343C0F804320B69002BD0F8143252
:100FD00008D01343C0F81432096A012904D008E08C
:100FE0009343EFE79343F5E7D0F81C121143C0F8A1
:100FF0001C12D0F8001221F00101C0F800120020EC
:1010000010BD000000640040704730B590F82040EB
:10101000012C05D0022C03D0416A41F480215DE00F
:101020000468002955D02469A40754D04FF4D8741B
:10103000056804EB01142D5915F004059560056849
:101040002D594ED0ED08556005682C5904F0020466
:10105000D4604FF4DA74056804EB01142D5905F0DF
:101060000F05156105682D59C5F3072595610568BC
:101070002C59240C54614FF4DC72046802EB011209
:10108000A4581C700468A458240A5C700468A4580E
:10109000240C9C700468A258120EDA704FF4DE72B1
:1010A000046802EB0112A4581C710468A458240AB5
:1010B0005C710468A458240C9C710468A258120E38
:1010C000DA71006881B1016941F0200101610020FD
:1010D00030BDE468A8E7416A41F400114162012093
:1010E00030BD6D0D1560AFE7C16841F02001C160F2
:1010F000EDE70246002092F82010012901D00229D4
:101100000CD111688A68520100D501208A68120149
:1011100000D5401C8968C90000D5401C70472DE9E6
:10112000F05F0546006800244669D0F8049087689F
:10113000D0F80CB0D0F810A0D0F81880F10748D043
:10114000F90714D001218160B80703D5284600F0C3
:10115000FAF90CE0780702D54FF4006407E038078D
:1011600002D54FF4805402E0284600F0EBF9F80570
:1011700016D529684FF480708860B80503D52846D5
:1011800000F0E3F90CE0780502D544F4005407E0E0
:10119000380502D544F4804402E0284600F0D4F932
:1011A000F80316D529684FF480308860B80303D55A
:1011B000284600F0CCF90CE0780302D544F4004452
:1011C00007E0380302D544F4803402E0284600F0FA
:1011D000BDF9300707D55FEACB6004D52968102038
:1011E00044F40074C86070074FF0080707D55FEA41
:1011F0000B7004D52868C760284600F057F9B0077F
:1012000006D52868C068800702D0284600F050F94B
:10121000700607D55FEACA6004D52968102044F437
:1012200080640861B00607D55FEA0A7004D52868B3
:101230000761284600F056F9F00606D528680069CF
:10124000800702D0284600F04EF9B00308D55FEAC7
:10125000C96005D5296810204860284600F044F987
:10126000F00307D55FEA097004D52868476028466F
:1012700000F06EF9300446D55FEA497040D5F005BC
:1012800004D55FEAC87001D044F00104B00504D56C
:101290005FEA887001D544F00204700504D55FEA66
:1012A000487001D544F00404300529D518F0700FBA
:1012B00026D008F07000402815D006DC102809D090
:1012C00020280AD0302816D10AE050280ED06028F5
:1012D00011D10EE044F008040DE044F010040AE0DF
:1012E00044F0200407E044F0400404E044F08004AB
:1012F00001E044F480742868816921F07001816103
:10130000296804204860002C05D0686A2043686280
:101310002846FFF779FEBDE8F09F70B5040003D0C2
:1013200094F8200010B104E0012070BD204600F0C8
:1013300081F82068016821F00201016000F010FCD2
:101340000546052604E000F00BFC401B0A2811D8D6
:10135000206840688007F6D42068016841F00101E8
:10136000016000F0FDFB05460BE000F0F9FB401BBF
:101370000A2806D9606A40F40030606284F8206070
:10138000D2E720684068C007EFD0207E012820689F
:1013900001683DD021F080010160607E0128206855
:1013A000016838D021F040010160A07E012820684A
:1013B000016833D021F020010160E07E012820681F
:1013C00001682ED041F010010160207F01282068C3
:1013D000016829D021F008010160607F01282068A0
:1013E000016824D021F004010160D4E9020108431E
:1013F000D4E90412114308436168491E0843216877
:10140000C86100206062012084F82000002070BDC7
:1014100041F08001C0E741F04001C5E741F0200103
:10142000CAE721F01001CFE741F00801D4E741F00D
:101430000401D9E710B586B0044614216846FEF7CA
:101440001DFF17492068884227D1164800210268ED
:1014500042F000720260006800F0007005901148D0
:101460001038026842F0080202600068022200F0B0
:10147000080005900320CDE90210CDE90002092003
:1014800004906946084800F041FA002211461420F1
:1014900000F0D4FB142000F0C3FB06B010BD000028
:1014A0000064004040380240000C024070470000D9
:1014B00000B58BB00A4B03AA0021FFF7A6FD08B1C7
:1014C000FFF7D0FB07AB0DF10C0C93E807008DE89C
:1014D00007009CE80F00FFF7EBF90BB000BD000020
:1014E00014000020704770477047000070B5044634
:1014F00090F82000012804D0606A40F40020606267
:1015000018E0022084F820002068016821F0010121
:10151000016000F025FB05460EE000BF00F020FB57
:10152000401B0A2808D9606A40F400306062052038
:1015300084F82000012070BD20684068C007EDD10C
:10154000606270BD70477047704770477047704762
:1015500070472DE9F0410446876D00F001FB064617
:1015600094F835000025022806D08020606584F8B4
:1015700034500120BDE8F0812068016821F0160197
:1015800001602068416921F080014161206C08B947
:10159000A06C20B12068016821F00801016020687A
:1015A000016821F0010101600BE000F0D9FA801B15
:1015B000052806D92020606504F8345F0320607098
:1015C000D8E720680068C007EFD194F85C103F208E
:1015D0008840B86004F8345F012060700020C9E7DB
:1015E00090F83510022903D0802141650120704711
:1015F000052180F835100068016821F001010160C3
:10160000002070472DE9F84304464FF00009CDF85B
:10161000009063484FF41651A56D0068B0FBF1F7D8
:101620002E6894F85C10082000FA01F131420FD0C6
:1016300021680A6852070BD50A6822F004020A6082
:1016400094F85C108840A860606D40F0010060650F
:1016500094F85C104FF0010808FA01F0304208D00D
:1016600021684969090604D5A860606D40F0020050
:10167000606594F85C1004208840304208D02168EE
:101680000968890704D5A860606D40F004006065B2
:1016900094F85C1010208840304218D02168096806
:1016A000090714D5A86020680168490304D50068BB
:1016B000000308D5A16C07E00168C90503D40168DF
:1016C00021F008010160216C09B12046884794F897
:1016D0005C1020208840304231D021680968C9065A
:1016E0002DD5A86094F8350005282068016806D03B
:1016F000490347D5006800031DD4616C1CE021F04C
:10170000160101602068416921F080014161206C6F
:1017100008B9A06C20B12068016821F008010160BF
:1017200094F85C103F208840A86084F8349084F8D6
:101730003580216D1FE0E16B09B120468847606D5F
:1017400000282BD0606DC00714D0052084F8350028
:101750002068016821F0010101600098401C0090A0
:10176000B84203D820680068C007F6D184F83490E6
:1017700084F83580E16C002910D001B02046BDE826
:10178000F04308470168C905D5D4016821F010016C
:10179000016084F8349084F83580CCE7BDE8F883A4
:1017A000300000202DE9F041044600F0D9F906464A
:1017B0005CB1002584F83450022084F8350020689C
:1017C000016821F0010101600DE00120BDE8F08118
:1017D00000F0C6F9801B052805D92020606503208C
:1017E00084F83500F2E720680068C007F0D122686D
:1017F000116820480140D4E901031843D4E90336B5
:101800003343184363691843A3691843E3691843D2
:10181000236A18430843616A042903D1D4E90B13EE
:1018200019430843106020684069666A20F0070188
:1018300030460E43012704280CD1A06A0643E06A13
:1018400040B12046FFF786F920B14020606584F85A
:101850003570BAE7206846612046FFF767F994F8CB
:101860005C203F2191408160656584F835700020DF
:10187000ACE700003F8010F02DE9F0410446866D92
:1018800090F83400002501280DD0012084F83400A0
:1018900094F835700020012F07D084F83400022519
:1018A0002846BDE8F0810220FBE7022784F8357066
:1018B00060652046FFF778F994F85C103F20884077
:1018C000B0602068016841F016010160206C20B111
:1018D0002068016841F0080101602068016841F05A
:1018E00001010160DCE7000070B5044600F038F942
:1018F0000546601C02D004480078044400F030F92A
:10190000401BA042FAD370BD240000202DE9F84FFF
:10191000DFF8F4A1002201240AF1040B03254FF0A3
:101920000F090BF1040E00BF0B6804FA02F63340F6
:10193000B3426FD10F7907F00307012F01D0022FB7
:1019400016D187684FEA420805FA08FC27EA0C0717
:10195000D1F80CC00CFA08FC4CEA070CC0F808C01F
:101960004768B7430E79C6F3001696403E4346607B
:101970000E79F643B6070AD0C7684FEA420C05FA5B
:101980000CF6B7438E6806FA0CF63E43C6600E7935
:1019900006F00306022E10D1D60800EB8608D8F810
:1019A000206057074FEAD76C09FA0CF7BE430F695E
:1019B00007FA0CF73743C8F8207006684FEA420C64
:1019C00005FA0CF7BE430F7907F0030707FA0CF787
:1019D000374307604E68F6001CD54C4E376847F415
:1019E00080473760366822F0030706F48046009689
:1019F000474E07EB060CDCF8086897073F0F09FA1B
:101A000007F826EA0806DFF80C81404503D14FF0BD
:101A1000000841E072E0DFF80081404502D14FF05C
:101A2000010839E0DFF8F480404502D14FF00208A8
:101A300032E0DFF8EC80404502D14FF003082BE0A4
:101A4000DFF8E080404502D14FF0040824E0DFF8E1
:101A5000D880404502D14FF005081DE0DFF8CC806A
:101A6000404502D14FF0060816E0DFF8C48040453B
:101A700002D14FF007080FE0DFF8B880404502D1EF
:101A80004FF0080808E0DFF8B080404502D14FF081
:101A9000090801E04FF00A0808FA07F848EA0608C2
:101AA000CCF80888DAF800605746D1F804C09E43A5
:101AB0005FEACC3C00D51E433E60DBF800605F4629
:101AC000D1F804C09E435FEA8C3C00D51E433E60C3
:101AD000DEF800607746D1F804C09E435FEACC2C64
:101AE00000D51E433E60084F0C373E68D1F804C055
:101AF0009E435FEA8C2C00D51E433E60521C102A88
:101B0000FFF412AFBDE8F88F003C014044380240BA
:101B10000030014000000240000402400008024082
:101B2000000C024000100240001402400018024065
:101B3000001C0240002002400024024000690840CE
:101B400000D001207047426921EA02030A4043EABB
:101B50000241816170470AB1816170470904FBE766
:101B60000148806870470000240000200248816816
:101B70000278114481607047240000200B4810B5A2
:101B8000016841F400710160016841F48061016005
:101B9000016841F480710160032000F06FF80020BB
:101BA00000F006F800F024F8002010BD003C0240D0
:101BB00070B50D4D04464FF47A712878B1FBF0F002
:101BC0000A490968B1FBF0F000F076FD48B9102C25
:101BD00007D200222146501E00F030F800206C6031
:101BE00070BD012070BD00002400002030000020E6
:101BF0000A4808B5016841F480410160006800F4BA
:101C0000804000900548001F016841F0805101604C
:101C1000006800F08050009008BD00004438024089
:101C2000002809DB00F01F020121914040098000DB
:101C300000F1E020C0F8001170470000F0B40E4B36
:101C40001B680C46C3F30223C3F10705042D00D91A
:101C50000425191D072901D2002300E0DB1E0126FF
:101C600006FA05F1491E214099409E40761E164015
:101C70003143F0BC01F0BEBF0CED00E0064900F0BE
:101C8000070208684FF6FF03184040EA0220034AA3
:101C900010430860704700000CED00E00000FA05FA
:101CA0002DE9F8431748016841F080510160006850
:101CB000154F00F08050012600903E64FFF750FF62
:101CC00005464FF47A78114C05E000BFFFF748FF56
:101CD000401B40450DD86068C003F7D57E64FFF710
:101CE0003FFF0546464607E0FFF73AFF401BB0427C
:101CF00002D90320BDE8F88360688003F4D5002092
:101D0000F8E700004038024000000E42007000403A
:101D10002DE9F0470E46050065D0DFF81481D8F8AC
:101D20000000F7B200F00F00B04207D288F8007050
:101D3000D8F8000000F00F00B04254D128683D4CA4
:101D4000810712D5400703D5206840F4E050206099
:101D50002878000703D5206840F4604020602068A0
:101D6000A96820F0F000084320602878C0072DD033
:101D7000304968680839012812D0022813D0032896
:101D800011D00968890700292DDA216821F00301A3
:101D900001432160FFF7E4FE814641F2883A0EE0FC
:101DA00009688903EFE709688901ECE7FFF7D8FEC6
:101DB000A0EB0901514502D90320BDE8F087206856
:101DC000696800F00C00B0EB810FEFD1D8F800107B
:101DD000404601F00F01B14207D90770006800F0DA
:101DE0000F00B04201D00120E7E72878400705D571
:101DF0002068E96820F4E050084320602878000754
:101E000006D52068296920F4604040EAC1002060BE
:101E100000F038F82168084AC1F30311515CC8404A
:101E20000649086006480068FFF7C2FE0020C4E7C4
:101E3000003C024008380240AE400008300000205C
:101E4000280000200448054900680968044AC1F3D5
:101E50008221515CC84070473000002008380240A1
:101E6000BE4000080448054900680968044AC1F3F7
:101E70004231515CC84070473000002008380240B1
:101E8000BE400008154810B5006810F00C02144858
:101E900013D01449042A0FD0082A0ED10F4C241F46
:101EA0002268236802F03F025B0207D52068C0F376
:101EB0008810A0FB010106E0084610BD2168C1F3AF
:101EC0008811A1FB00010023FEF78EF92168C1F300
:101ED0000141491C4900B0FBF1F010BD0838024037
:101EE0000024F400001BB7002DE9F84F04006ED069
:101EF0002078DFF84C93C007A9F104054AD009F116
:101F000004000168C1F38101012908D00068C0F311
:101F1000810002280AD1D9F80000400206D52868BD
:101F2000800337D560680028E1D033E06068B0F501
:101F3000803F10D0B0F5A02F286810D020F480305A
:101F40002860286820F4802028606068A8B1FFF726
:101F500007FE06460DE0286840F48030F4E740F4C0
:101F600080202860F7E700BFFFF7FAFD801B642898
:101F700073D828688003F7D50CE0FFF7F1FD06461B
:101F800005E000BFFFF7ECFD801B6428F0D828684F
:101F90008003F7D42078DFF8AC8280074FF0000A86
:101FA0003ED5A748001D016811F00C0F08D000684D
:101FB000C0F3810002280BD1D9F80000400207D4F9
:101FC0002868800716D5E068012800D112E033E1C7
:101FD000E068B8B10120C8F80000FFF7C1FD06466F
:101FE00005E000BFFFF7BCFD801B0228C0D82868B1
:101FF0008007F7D52868216920F0F80040EAC10081
:1020000028600DE0C8F800A0FFF7AAFD064604E02E
:10201000FFF7A6FD801B02281FD828688007F7D489
:102020002078000722D5864F87486169703771B1E3
:1020300001210160FFF794FD064604E0FFF790FDE3
:10204000801B022809D838688007F7D50EE0C0F851
:1020500000A0FFF785FD064605E082E0FFF780FD62
:10206000801B02287DD838688007F7D42078400785
:1020700068D5DFF8CCB100270BF13C0BDBF8000092
:10208000C0000BD4DBF8001041F08051CBF80010F9
:10209000DBF80000012700F0805000906B4E3068A4
:1020A000C00510D4306840F480703060FFF758FDF0
:1020B000009005E0FFF754FD0099401A022850D81F
:1020C0003068C005F6D55E4EA0686C3601280FD08A
:1020D0000528306810D020F001003060306820F012
:1020E00004003060A068B8B1FFF73AFD00900FE03F
:1020F000306840F00100F4E740F004003060F7E79A
:10210000FFF72EFD0099411A41F28830814266D8CE
:1021100030688007F4D50EE0FFF722FD009007E05D
:10212000FFF71EFD0099411A41F28830814256D8CE
:1021300030688007F4D42FB1DBF8001021F0805113
:10214000CBF80010A069C8B33D49091D0968C1F367
:10215000810102294AD00228504607D0C8F8600001
:1021600000E03CE0FFF7FCFC04463BE04746C8F8D3
:102170006000FFF7F5FC064605E000BFFFF7F0FC46
:10218000801B02282BD828688001F7D4D4E90701E6
:102190000843A16A2E4A490802EB0141626A41EAFA
:1021A0008211084394F82C1040EA0161C9F800102C
:1021B00001203866FFF7D4FC044606E03EE000BF8D
:1021C000FFF7CEFC001B022809D828688001F7D54C
:1021D00034E000BFFFF7C4FC001B022802D9032033
:1021E000BDE8F88F28688001F4D427E00128F7D0F3
:1021F000D9F80000E26900F4800191421CD1226A02
:1022000000F03F01914217D147F6C071626A014068
:10221000B1EB821F10D1A26A4FF0FF3300F44031BE
:1022200003EB5202B1EB024F06D194F82C1000F0F0
:102230007060B0EB016F01D00120D1E70020CFE743
:102240000438024000004742800E474200700040C0
:102250000000FFFF70B5040009D0606A002540B19E
:1022600025616561A56294F8510040B10CE0012040
:1022700070BD6068B0F5827FF4D0E561F2E784F864
:102280005050204600F044F8022084F851002068A5
:10229000016821F040010160A088218900F482706A
:1022A00001F404410843A18901F400610843217C41
:1022B00001F002010843217D01F001010843218B57
:1022C00001F400710843217F01F03801084394F8BC
:1022D000201001F080010843218D01F400510843D2
:1022E00021680860A069042101EA104094F82410D4
:1022F00001F010010843216848602068C16921F499
:102300000061C1616565012084F85100002070BD45
:1023100010B586B0044614216846FDF7AFFF144996
:102320002068884221D113480021026842F40052FB
:102330000260006800F4005005900E4814380268EE
:1023400042F010020260006800F0100005904FF4A7
:10235000835000900220CDE9010103200390052065
:10236000049069460448FFF7D1FA06B010BD00009A
:102370000034014044380240001002402DE9F84F7B
:10238000044640680025984616460F464FF0040B59
:10239000B0F5827F01D1A06888B194F8500001287F
:1023A00018D0012084F85000FFF7DAFB814694F83A
:1023B00051004FF0000A01280ED0022582E084F877
:1023C00051B013460A462046CDF8008000F083F84D
:1023D000BDE8F88F0220FBE7002F72D0002E70D0EE
:1023E00084F851B0C4F854A0A763A687E687C4F860
:1023F00030A0A4F834A0A4F836A0C4F840A0C4F8D3
:1024000044A0A068B0F5004F09D12068016821F010
:10241000400101602068016821F48041016020686A
:102420000168490603D4016841F040010160E06899
:10243000D8B139E020688168C90709D0007BA16B59
:102440000870A06B401CA063E08F401EE0870CE08A
:10245000FFF786FBA0EB0901414503D3B8F1FF3F2D
:1024600003D036E0B8F1000F33D0E08F0028E1D17F
:102470001DE020688168C90709D0C068A16B088089
:10248000A06B801CA063E08F401EE0870CE0FFF78C
:1024900067FBA0EB0901414503D3B8F1FF3F03D02F
:1024A00017E0B8F1000F14D0E08F0028E1D14A46C0
:1024B0004146204600F076FF08B120206065606D3F
:1024C00000B10125012084F8510084F850A028466D
:1024D0007EE70325F6E72DE9F84F044690F8500013
:1024E00000270A9E1D4692468B464FF0010901289F
:1024F0000ED0012084F85000FFF732FB804694F89C
:102500005100616801280CD0B1F5827F07D102E04B
:102510000220BDE8F88FA16809B9042801D002277C
:10252000C2E0BBF1000F27D0BAF1000F24D01DB3D9
:1025300094F85100042802D0052084F851000020AE
:102540006065C4F838A0E587A587C4F830B0E58693
:10255000A5862064606420680168490603D4016888
:1025600041F040010160E068B0F5006F606805D09F
:10257000E8B3012D46D07FE0012795E008B1012D99
:1025800039D1206B21680088C860206B801C2063D3
:10259000E08E401EE0862EE02068816889070FD516
:1025A000E18E69B1B9F1010F0AD1216B0988C160CF
:1025B000206B801C2063E08E401EE0864FF00009F7
:1025C00020688168C9070CD0E18F51B1C068A16B48
:1025D0000880A06B801CA063E08F401EE0874FF056
:1025E0000109FFF7BDFAA0EB0800B04200E009E0E6
:1025F00001D3701C50D1E08E0028CDD1E08F00288F
:10260000CAD13FE0206B216800780873206B401C22
:102610002063E08E401EE0862EE0206881688907F6
:102620000FD5E18E69B1B9F1010F0AD1216B09789B
:102630000173206B401C2063E08E401EE0864FF04B
:10264000000920688168C9070CD0E18F51B1C068CA
:10265000A16B0870A06B401CA063E08F401EE08758
:102660004FF00109FFF77CFAA0EB0800B04202D35B
:10267000701C01D010E07EB1E08E0028CDD1E08F3B
:102680000028CAD142463146204600F0B9FE28B1A2
:1026900001272020606507E0032705E0A06818B93E
:1026A0002068C16880680090012084F851000020F3
:1026B00084F8500038462CE710B5401EB0F1807FFA
:1026C00001D3012010BD4FF0E02460610F2160179D
:1026D00001F090FA0020A06107202061002010BDC9
:1026E0007047704770B590F83C20012A32D0012421
:1026F00080F83C40022280F83D2003685A689D68BB
:1027000022F070060A6832435A60134B02689A42FC
:1027100014D0B2F1804F11D0104B9A420ED0104B12
:102720009A420BD00F4B9A4208D00F4B9A4205D0D9
:102730000E4B9A4202D00E4B9A4204D1496825F0C2
:1027400080031943916080F83D40002180F83C10DF
:10275000084670BD022070BD00000140000400402A
:1027600000080040000C004000040140004001400F
:102770000018004010B5040003D094F83D0010B1DB
:1027800007E0012010BD002084F83C00204600F046
:102790001FF8022084F83D00211D206800F01AFF78
:1027A000012084F8460084F83E0084F83F0084F855
:1027B000400084F8410084F8420084F8430084F823
:1027C000440084F8450084F83D00002010BD00005E
:1027D00008B500680B49884212D10B48016841F0E6
:1027E000010101600068002200F001000090114624
:1027F0001920FFF723FABDE808401920FFF710BAA7
:1028000008BD0000000001404438024090F83D102F
:10281000012901D001207047022180F83D10016894
:10282000CA6842F00102CA6000681149884214D0A7
:10283000B0F1804F11D00F4988420ED00E49884226
:102840000BD00E49884208D00D49884205D00D4969
:10285000884202D00C49884204D1816801F0070106
:10286000062903D0016841F0010101600020704792
:10287000000001400004004000080040000C00403F
:1028800000040140004001400018004070B50446BB
:1028900090F83C00012817D0012584F83C50022014
:1028A00084F83D002068826822F0770222F47F429B
:1028B00082600868502830D00DDC20284DD005DC1F
:1028C00098B310283BD148E0022070BD302844D096
:1028D000402834D139E0602828D0702806D0B0F5DF
:1028E000805F2CD0B0F5005F29D10AE0CB68D1E938
:1028F0000121206800F0D2FE2068816841F0770154
:1029000009E0CB68D1E90121206800F0C7FE20680A
:10291000816841F48041816011E0CA68496820689B
:1029200000F0CEFE5021206807E016E0CA68496832
:10293000206800F0D6FE6021206800F0B9FE84F81F
:102940003D50002084F83C0070BDCA68496820688A
:1029500000F0B6FE40212068EFE7226801461046ED
:10296000EBE7704770B50446006801694FF0000559
:10297000C943890715D4C168C943890711D4E91E21
:10298000016101202077206880698007204602D0FD
:10299000FFF7E7FF04E000F098F8204600F096F813
:1029A000257720680169C943490717D4C168C9431D
:1029B000490713D46FF004010161022020772068D9
:1029C000806910F4407F204602D0FFF7CAFF04E080
:1029D00000F07BF8204600F079F82577206801693F
:1029E000C943090716D4C168C943090712D46FF057
:1029F00008010161042020772068C0698007204613
:102A000002D0FFF7AEFF04E000F05FF8204600F0D0
:102A10005DF8257720680169C943C90617D4C168E4
:102A2000C943C90613D46FF0100101610820207753
:102A30002068C06910F4407F204602D0FFF791FF64
:102A400004E000F042F8204600F040F825772068C6
:102A50000169C943C90708D1C168C943C90704D17D
:102A6000891E0161204600F033F820680169C943DE
:102A7000090609D4C168C943090605D46FF080016D
:102A800001612046FFF72CFE20680169C943490611
:102A900009D4C168C943490605D46FF040010161FA
:102AA000204600F027F820680169C94389060BD445
:102AB000C168C943890607D46FF02001016120462F
:102AC000BDE87040FFF70DBE70BD70477047000055
:102AD00010B5074900680968884207D100F07EFAFE
:102AE000FEF778F8BDE8104000F00ABA10BD00000B
:102AF000280900207047704770470000F8B5026849
:102B000004461068D168536910F00F0F4FF00005AC
:102B100053D003F0010601F4907737435FD0C2072A
:102B200005D0CA0503D5226C42F001022264420797
:102B300005D5DA0703D0226C42F002022264820734
:102B400005D5DA0703D0226C42F0040222640207A2
:102B500007D501F02002324303D0226C42F0080274
:102B60002264226C002A34D0800604D5880602D55F
:102B7000204600F0E9FE20684069216CC0F3801017
:102B8000090700D430B3204600F0BDFE206841693B
:102B900049061BD5416921F040014161A06BA8B1F4
:102BA00059490165A06BFEF71BFD002811D0A06BF1
:102BB000016D01B0BDE8F040084783060FD58B06D4
:102BC0000DD52046BDE8F84000F0BEBE2046FFF718
:102BD00093FFF8BD2046FFF78FFF2564F8BD266BF5
:102BE0002023012E53D1C60651D5CE064FD51068ED
:102BF00050680090506940062BD5A16B086840686A
:102C00000004000CEAD0A68D8642E7D9E085C869A9
:102C1000B0F5807F18D0D06820F48070D060206834
:102C2000416921F0010141612068416921F04001C1
:102C3000416184F83E3025632068C16821F01001AD
:102C4000C160A06BFEF785FCA08DE18D401A81B2BA
:102C500019E0A08DE18D401A81B2E08D0028BDD031
:102C60000029BBD0D06820F49070D0602068426901
:102C700022F00102426184F83E3025632068C26878
:102C800022F01002C2602046FFF735FFF8BD0506AE
:102C90002BD50D0629D594F83D002128F6D1A06842
:102CA000B0F5805F01D12069B0B1206A411C21627A
:102CB000216800784860E08C401E0004000CE0842D
:102CC000E4D12068C16821F08001C1602068C1683A
:102CD00041F04001C160F8BD206A0088C0F30800DF
:102CE0005060206A801C2062E5E74006F3D5480664
:102CF000F1D5D168204621F04001D16084F83D3003
:102D000000F0FBF8F8BD00003938000870B5040089
:102D100004D094F83D00002510B106E0012070BDFC
:102D200084F83C50204600F023F8242084F83D002D
:102D30002068C16821F40051C160204600F05CFEAB
:102D40002068016921F4904101612068416921F006
:102D50002A0141612068C16841F40051C1602564C5
:102D6000202084F83D0084F83E00002070BD000063
:102D7000F0B587B0064614216846FDF77FFA3F4854
:102D8000DFF8F4C01438356800243C4902220323DC
:102D90000715654531D10D6845F010050D600968CE
:102DA00001F010010591016841F002010160006825
:102DB000694600F002000590C0208DE8150007204C
:102DC000CDE903302E48FEF7A1FD2F4D2D48286098
:102DD0007804C5E90104C5E90347C0146C61C5E97D
:102DE00006402C6228466C62FEF7DCFC08B1FDF759
:102DF00039FFB563AE6307B0F0BDDFF890C065453D
:102E0000F9D10D6845F020050D60096801F0200139
:102E10000591016841F0400101600068694600F0D9
:102E2000400005904FF484408DE815000820CDE95E
:102E300003301748FEF76AFD134D12486035183805
:102E400028608005C5E90104C5E903476C61AC61F0
:102E5000EC612C6228466C62FEF7A4FC08B1FDF719
:102E600001FFB563002211464720AE63FEF7E6FE80
:102E70004720FEF7D5FEBEE700100140443802406F
:102E80000004024040640240F809002000140140A0
:102E90000018024090F83E30202B0ED159B152B1AB
:102EA00090F83C30012B08D0012380F83C300023FF
:102EB000036300F027BE0120704702207047000026
:102EC00010B504460948844201D100F01DFC0849B0
:102ED00020680968884208D100F040FCBDE8104035
:102EE000422204490248FFF7D5BF10BD70090020F7
:102EF000B40900202A08002070477047FEE7000050
:102F000070B510212DED068B2948FEF717FE294DCF
:102F1000F0BB294C002202212046FEF71CFE0022B5
:102F200001212046FEF717FE244864230822016889
:102F30002348FFF723FA012211462046FEF70BFE35
:102F4000012202212046FEF706FE9FED1EAA9FEDFC
:102F50001E8B9FED1F9B0724A5F1100636F8140069
:102F600000EE100AB8EE400A20EE0A0A10EE100A2F
:102F7000FDF717FB53EC182BFDF732FA53EC192B26
:102F8000FDF787F9FDF720FB45F82400641E00E0FB
:102F900000E0E3D210482968C0F805106968C0F85D
:102FA0000E10A968C0F81710BDEC068B70BD0000AC
:102FB000001002407C080020001402401C00002089
:102FC000D008002000000038000000000056C34078
:102FD0000000000000005940D807002038B51E4C02
:102FE000206800EE100A002000F0BCFED4F80900B2
:102FF00000EE100A012000F0B5FED4F8120000EE39
:10300000100A022000F0AEFE144800F089F91348BF
:103010008C3000F085F9124800F082F90020009011
:103020000E483C3890ED5D0ABDEEC00A10EE101A55
:1030300090ED3A0A0BB2BDEEC00A10EE101A90EDF8
:10304000170A0AB2BDEEC00A10EE100A01B2054816
:10305000FDF73CFC38BD0000D807002074000020BC
:103060008C010020A80800200E4810B50C49016012
:103070000921416000214FF400328160C0E9031250
:103080004161017641768176C17601774177FEF71D
:1030900044F9002803D0BDE81040FDF7E3BD10BDA2
:1030A00000640040A80800200D4808B5016841F4FC
:1030B000800101600068002200F480000090114649
:1030C0003920FEF7BBFD3920FEF7AAFD002211468C
:1030D0003A20FEF7B3FDBDE808403A20FEF7A0BD58
:1030E000303802402DE9F04387B014216846FDF7DF
:1030F000C5F83B480024016841F0400101600168C7
:1031000001F040010591016841F001010160016891
:1031100001F001010591016841F0100101600168B1
:1031200001F010010591016841F0020101600168A0
:1031300001F002010591016841F008010160016898
:1031400001F008010591016841F02001016001686A
:1031500001F020010591016841F0800101600068E3
:10316000204F00F0800044F203050590002229461C
:103170003846FEF7F0FCDFF8708000220E21404652
:10318000FEF7E9FCDFF864904FF4E0460022314698
:103190004846FEF7E0FC1020CDE9000469461448DB
:1031A0000294FEF7B3FB00950125CDE90154694671
:1031B00038460394FEF7AAFB0E200090CDE9015497
:1031C000694640460394FEF7A1FB0096CDE9015401
:1031D000694648460394FEF799FB07B0BDE8F083C3
:1031E000303802400014024000180240000C024037
:1031F00000100240104810B50E4901604FF4827172
:10320000416000214FF40062C0E902129210016196
:10321000C0E905120822C0E90721416281620A2142
:10322000C162FFF717F8002803D0BDE81040FDF792
:1032300019BD10BD00340140D008002010B586B083
:1032400000241748009401940294039404941349B1
:1032500005940160B321C0E9011440F2E731C0E9EF
:10326000031444618461FFF785FA08B1FDF7FAFCA5
:103270004FF48050009069460948FFF707FB08B1FA
:10328000FDF7F0FC049404A905480594FFF72AFA19
:10329000002801D0FDF7E6FC06B010BD000001409B
:1032A000280900200D4810B50B4901600C49416008
:1032B00000214FF480628160C0E903120C22C0E952
:1032C0000521C161FFF722FD002803D0BDE81040B1
:1032D000FDF7C8BC10BD00000010014070090020BF
:1032E000A08601000C4810B50A4901604FF4E13195
:1032F0004160002181600C22C160C0E9041281613B
:10330000C161FFF703FD002803D0BDE81040FDF7C1
:10331000A9BC10BD00140140B4090020FEE7FEE77F
:1033200090ED040AD0ED030AB0EE002A30EE600AF8
:1033300080ED050AD0ED070AD0ED001A30EE601AD4
:1033400021EE211AD0ED011A01EE801AF0EE401A9A
:1033500040EEC21A90ED062A71EE821A90ED022A12
:1033600002EE211AD0ED081A31EE211A80ED081A6A
:10337000C0ED060A80ED070A90ED090AB4EEC01A06
:10338000F1EE10FA01DD80ED080AD0ED080AB1EE89
:10339000400AF4EEC00AF1EE10FA01D280ED080AFC
:1033A00070477047F8B5044640684FF482739842FE
:1033B00021D1A0684FF48065B0F5004F01D0A8423C
:1033C0000AD12068066826F04006066060689842C8
:1033D00011D1A068A8420ED000920B460022802195
:1033E000204600F039F8002804D0606D40F020003D
:1033F00060650320F8BD00920B4600220121EFE733
:1034000038B504461248134B0068B0FBF3F04FF494
:103410007A73584300906068B0F5827F0DD10B46F7
:10342000009200228021204600F016F870B1606DF5
:1034300040F020006065032038BD009830B1401E88
:10344000009020688068C0430006F6D5002038BD93
:103450003000002000366E012DE9F8431E469146EB
:1034600088460446089DFEF77BFB401B351AFEF795
:1034700077FB074625480068C0F3CB30684338E047
:10348000701C37D0FEF76CFBC01BA84203D215B1ED
:10349000009860B32CE02068416821F0E0014160B1
:1034A0006068B0F5827F0BD1A068B0F5004F02D004
:1034B000B0F5806F04D12068016821F040010160FF
:1034C000A06AB0F5005F09D12068016821F40051BD
:1034D00001602068016841F400510160012084F816
:1034E0005100002084F850000320BDE8F883002537
:1034F000401E00902068816838EA010004D0002155
:103500004945BDD10020F0E70121F9E73000002056
:103510007047FEF72BBB000030B593B030216846F2
:10352000FCF7ACFE14210CA8FCF7A8FE20480025EF
:10353000016841F080510160006800F080501190F6
:103540001C48016841F4404101600068022400F415
:103550004040119001200090000401908001CDE9CD
:10356000064006200890B420CDE9090404200B9001
:103570006846FEF7B9FC08B172B6FEE7FEF790FBAD
:1035800008B172B6FEE70CA90F2081E831004FF4B4
:10359000A0500F904FF48050109005210CA8FEF71A
:1035A000B7FB002801D072B6FEE713B030BD0000B3
:1035B00040380240007000400248016841F4700148
:1035C0000160704788ED00E00148FFF7CBB90000CB
:1035D00028090020F0B50268254C264D264E274FBD
:1035E000274B4FF0804CA04209D0604507D0A8423D
:1035F00005D0B04203D0B84201D0984204D122F0A5
:10360000700E4A6842EA0E02A0421BD0604519D0F3
:10361000A84217D0B04215D0B84213D0984211D06A
:10362000184DA8420ED0184DA8420BD0174DA842F5
:1036300008D0174DA84205D0164DA84202D0164D0D
:10364000A84203D122F44075CA682A434D6922F08A
:1036500080022A4302608A68C2620A688262A042CB
:1036600001D0984201D10969016301214161F0BD96
:10367000000001400004004000080040000C004031
:103680000004014000400140004401400048014066
:1036900000180040001C00400020004010B5846865
:1036A00042EA032224F47F440A432243826010BD8D
:1036B000826822F070020A4342F00701816070477D
:1036C00010B5036A046A24F001040462846924F0DA
:1036D000F00444EA021423F00A020A4384610262FD
:1036E00010BD10B5036A23F0100303628369046AF6
:1036F00023F4704343EA023224F0A00343EA0111A9
:103700008261016210BD000012490888C0F30A02FC
:10371000114802804A78D3088A7843EA4213C3F3F7
:103720000A034380CB78920942EA83030A7943EA89
:103730008223C3F30A0383804979520842EAC11203
:10374000C2F30A02C2808A090272C1F301114172F6
:1037500070470000180800209C080020F0B532488F
:10376000304F89B0057846780024391921226846FF
:10377000FCF76BFD9DF80000A8424FD19DF80100B9
:10378000B0424BD11F2229480DF10201FCF75DFD2B
:103790002648016800EE101A0021B5EEC00AF1EECD
:1037A00010FA00D20160D0F8092000EE102AB5EE20
:1037B000C00AF1EE10FA01D2C0F80910D0F81220B8
:1037C00000EE102AB5EEC00AF1EE10FA01D2C0F8F0
:1037D0001210D0F81B2000EE102AB5EEC00AF1EE50
:1037E00010FA01D2C0F81B10026811498A4200DDAC
:1037F0000160D0F809208A4201DDC0F80910D0F834
:1038000012208A4201DDC0F81210D0F81B10094ABC
:10381000914201DDC0F81B2009B0F0BD641C212CD1
:10382000A3DBF9E72A080020A4400008D8070020FD
:103830000000E143DA0F494010B5806B0021C185DB
:10384000C184FFF759F910BD70B5846B20684069D9
:1038500094F83D10C0F3C0100025212904D118B1FF
:10386000E584204600F067F82068406994F83E102F
:10387000C0F38010222904D118B1E585204600F05C
:1038800042F8206C40F0100020642046FFF734F925
:1038900070BD10B50146806B09680968C9051BD465
:1038A0000021C1850168CA6822F48072CA6001687B
:1038B0004A6922F001024A6101684A6922F0400225
:1038C0004A61202180F83E10016B012904D1016872
:1038D000CA6822F01002CA60016B012902D0FFF70A
:1038E000EFFA10BD818DFFF706F910BD10B5806BA2
:1038F000016B012902D0FFF7FFFA10BD818D490845
:10390000FFF7F9F810BD0168CA6822F49072CA6026
:1039100001684A6922F001024A61016B012904D160
:103920000168CA6822F01002CA60202180F83E10A7
:103930000021016370470168CA6822F0C002CA60B2
:10394000202180F83D10704710B5044690F83E00E5
:10395000222801D0022010BDA1684FF4805291426C
:1039600001D1206920B1A06A91421BD049B10AE07F
:103970002168A06A4968C1F308010180A06A801C1F
:1039800008E0216971B12168496801F07F01017087
:10399000A06A401CA062E08D401E0004000CE0857F
:1039A00003D01CE021684968F1E72068C16821F074
:1039B0002001C1602068C16821F48071C160206865
:1039C000416921F001014161202084F83E00206B13
:1039D000012806D02046FFF773FA0020206300205C
:1039E00010BD2068C16821F01001C160A18D204682
:1039F000FFF781F8F1E7000070B50446006801693F
:103A0000E26821F44051114301612169A068E26933
:103A100008436169114308432168CA6849F20C638D
:103A20009A430243CA6020684169A26921F4407147
:103A30001143416131492068884202D030498842AF
:103A400002D1FEF70FFA01E0FEF7FCF9E26900236C
:103A5000192164253226B2F5004F626828D0A0FBF8
:103A60000101930F9200FCF7BFFB0146B0FBF5F09C
:103A70006FF01802504301EB800006EB0010B0FB22
:103A8000F5F000F0F002B1FBF5F002EB0012B1FB33
:103A9000F5F06FF01803584301EB800006EB0010BF
:103AA000B0FBF5F000F00F0021681044886070BD95
:103AB000A0FB010192185B41FCF796FB0146B0FBAD
:103AC000F5F00201B1FBF5F06FF01803584301EB7C
:103AD000800006EBC000B0FBF5F000F0F80002EB50
:103AE0004002B1FBF5F0584301EB800006EBC0004B
:103AF000B0FBF5F000F00700D6E700000010014031
:103B00000014014038B581628285002513460446C1
:103B10000564222084F83E00A26B1348D063A26B98
:103B200012481064A26B1248D064A06B0A46056567
:103B30002168A06B091DFDF79FFE206801684168A0
:103B4000009184F83C50C16841F48071C1602068E4
:103B5000416941F0010141612068416941F0400142
:103B60004161002038BD000093380008ED3800089E
:103B7000493800080148FEF7C1BF0000B409002021
:103B8000FEE7000010B5122211491248FFF782F932
:103B9000422211491148FFF77DF91148FCF760FEF8
:103BA0001048FEF733FE10490020087081F88C00A1
:103BB00081F81801FCF7DAFEFDF762F80B480C49B2
:103BC00002780A7040784870BDE8104000F08EB866
:103BD00018080020700900202A080020B4090020DD
:103BE000A80800202809002038000020A440000870
:103BF000F70700200907090E002804DB00F1E02088
:103C000080F80014704700F00F0000F1E02080F809
:103C1000141D704700B52DED048BB0EE409AF0EE08
:103C2000609A83B051EC190BFCF7AFFD41EC180B17
:103C300018EE100A18EE901A8DED008B002818BFB0
:103C40000120084320F00040C0F17F6000F1E04017
:103C5000C00F14D019EE101A19EE900A8DED009BCA
:103C6000002918BF0121084320F00040C0F17F6007
:103C700000F1E040C00F04BF012000F017F8B0EEE3
:103C8000480A03B0F0EE680ABDEC048B00BD02E008
:103C900008C8121F08C1002AFAD1704770470020D7
:103CA00001E001C1121F002AFBD1704701490860E1
:103CB00070470000340000200988DFED0B0A49BA84
:103CC00000EE101A90ED0D1AB8EE400A60EE200AD0
:103CD00080EE810A80ED020A80ED060A80ED070A77
:103CE00080ED080A704700000000B44310B50B4C8B
:103CF000002202212046FDF72EFF0F21491E11F060
:103D0000FF01FBD1012202212046FDF724FF2046BE
:103D10000122BDE810401146FDF71DBF001402400E
:103D2000FDF72CFFFFF7F8FBFFF7DCF9FFF7BCF915
:103D3000FFF79AF9FFF782FAFFF7D4FAFFF7B2FA22
:103D4000FFF758FAFFF71EFF054D4FF48044214658
:103D50002846FDF7F8FE6420FDF7C6FDF7E70000F2
:103D6000001402402DE9F0413C493F4A01EB800834
:103D70002DED028BB0EE408A98ED000A3B4DC0EB72
:103D8000C00630EE480A364F06EB86063549B0EEDF
:103D9000C00A10EE103A02F10C0405EB860604EBA3
:103DA0008005BB4206DD0B6842F8203096ED0E0A16
:103DB00085ED000A52F820200968891A00EE101AD1
:103DC000B8EE401A95ED000A78EE400AF5EEC00A0A
:103DD000F1EE10FA01DD012401E04FF0FF34224939
:103DE000DFED231A183101EBC0073846B0EE612A27
:103DF000F0EE480A00F042F800EE104AD5ED000A55
:103E000097ED011AB8EEC00A1448001F41EE000AEF
:103E100096ED0E0A97ED001A70EEC00A00EE104AF9
:103E2000B8EEC00A21EE000A90ED001AB8EEC11AF1
:103E300001EE200A10EE100AFCF7B3FB9FED0D1BFC
:103E400053EC112BFCF7CCFAFCF7BEFBF06488EDC9
:103E5000008ABDEC028BBDE8F08100000800002064
:103E60000AD7233C2C000020A8070020380000209F
:103E700000004843083B77657456224010B530EE89
:103E8000C00A2DED0C8BB0EE61AAF0EE428A2AEE4C
:103E90000ADAB0EEC09AB0EE418A04468DEE280AE6
:103EA0009FED7ABBDFED7B9AB4EEC09AF1EE10FA8B
:103EB0007ED818EE900AFCF774FB41EC1A0B19EE51
:103EC000100AFCF76EFB53EC1A2BFCF7FBFA41ECE3
:103ED000100BFFF79FFE9FED701B51EC100B53EC86
:103EE000112BFCF77DFAFCF76FFB00EE100A60EE79
:103EF000290AF4EEC80AF1EE10FA01D2B0EE608A97
:103F0000DFED670A60EE200AF4EEC80AF1EE10FA5F
:103F100023DD00BF28EE880A88EE299A80EE29AAC0
:103F200019EE100AFCF73DFB41EC1C0B19EE100AD0
:103F3000FCF737FB41EC190B18EE900AFCF731FB4C
:103F400053EC1B2BFCF74CFA53EC192BFCF748FAFB
:103F500053EC1C2BFCF744FA8FE0C8EE290A30EE34
:103F6000608A18EE100A28EE28AAFCF71AFB41EC2A
:103F70001C0B18EE100AFCF714FB41EC1D0B18EE9D
:103F8000900AFCF70EFB53EC1B2BFCF729FA53ECC1
:103F90001D2BFCF725FA53EC1C2BFCF721FA41EC06
:103FA000180B19EE100AFCF7FCFA53EC182B00E082
:103FB00002E0FCF70FFA60E01AEE100AFCF7F1FAE3
:103FC00041EC1C0B19EE100AFCF7EBFA53EC1C2B1E
:103FD000FCF778FACAEE28AA41EC1C0B1AEE900AFC
:103FE000FCF7DFFA53EC1C2BFCF753F9FCF7ECFA67
:103FF00000EE100A60EE290AF4EEC80AF1EE10FA9B
:1040000001D2B0EE608A2AEE291AC1EE280AF4EE37
:10401000C80AF1EE10FA3FF77DAFF4EEC80AF1EEF0
:1040200010FA9AD870EE6A0A60EEA90AF4EEC80A8D
:10403000F1EE10FA91DD88EE290A30EE6A0A20EEE0
:104040000A0A10EE100AFCF7ACFA41EC190B18EE54
:10405000900AFCF7A6FA41EC180B1DEE100AFCF7CB
:10406000A0FA53EC1B2BFCF7BBF953EC182BFCF715
:1040700029FA53EC192BFCF70CF9FCF7A5FA84ED9F
:1040800000AA6060BDEC0C8B10BD000000000000B9
:104090000000E03F00007A44000000000000004003
:1040A0000000FA43FF8600061016000610160000F6
:1040B00000000000000001020304060708090000D8
:1040C0000000010203040000E84000080000002096
:1040D000380000008E3C0008204100083800002015
:1040E000800E00009E3C0008000000001E00000042
:1040F000000080BF000080BF000080BF0000000003
:10410000000000006C0800203200000001000000E8
:1041100010000000000000000024F4000000000077
:04000005080001AD41
:00000001FF
